:020000040800F2
:100000000000032081190008411800084718000863
:100010004D18000853180008591800080000000087
:100020000000000000000000000000005F18000851
:100030006D180008000000007B18000889180008EF
:10004000D5190008D5190008D51900089518000819
:10005000D5190008D5190008D5190008D5190008C8
:10006000D5190008D5190008D5190008D5190008B8
:10007000D5190008D5190008D5190008D5190008A8
:10008000D5190008D5190008D5190008D519000898
:10009000D5190008D5190008D5190008D519000888
:1000A000D5190008D5190008D5190008D519000878
:1000B000D5190008D5190008D5190008D519000868
:1000C000D5190008D5190008D5190008D519000858
:1000D000D5190008D5190008D5190008D519000848
:1000E000D5190008D5190008D5190008D519000838
:1000F000A1180008AD180008B9180008D5190008A3
:10010000D5190008D5190008D5190008D519000817
:10011000D5190008D5190008D5190008D519000807
:10012000D5190008D5190008D5190008D5190008F7
:0C013000D5190008D5190008D5190008E1
:10013C0010B5054C237833B9044B13B10448AFF315
:10014C0000800123237010BDA401002000000000DA
:10015C00687B000808B5034B1BB103490348AFF398
:10016C00008008BD00000000A8010020687B00088A
:10017C00034613F8012B002AFBD1181A01387047DB
:10018C00B0B588B000AF0B4B3C1D1D460FCD0FC456
:10019C0095E8070003C422800234130C237005F089
:1001AC0095FE3B1D184605F030F900BF2037BD46C3
:1001BC00B0BD00BF807B000880B483B000AF786016
:1001CC00074BD3F8803023F0070205497B681343B3
:1001DC00C1F8803000BF0C37BD465DF8047B70471A
:1001EC000004005880B483B000AF7860064BD3F89D
:1001FC00902005497B681343C1F8903000BF0C3741
:10020C00BD465DF8047B70470008005880B483B08D
:10021C0000AF78604FF0B0430A4AC3F89C204FF00F
:10022C00B043D3F89C3023F47C527B681B024FF014
:10023C00B0411343C1F89C3000BF0C37BD465DF88C
:10024C00047B7047FECAFECA80B483B000AF7860EE
:10025C004FF0B0439B6823F400424FF0B0417B68F1
:10026C0013438B6000BF0C37BD465DF8047B7047B1
:10027C0080B400AF4FF0B043D3F890304FF0B042A1
:10028C0043F48033C2F8903000BFBD465DF8047B68
:10029C00704780B400AF4FF0B043D3F890304FF0BC
:1002AC00B04223F48033C2F8903000BFBD465DF8F5
:1002BC00047B704780B400AF4FF0B043D3F8943058
:1002CC0003F08063B3F1806F01D1012300E00023C0
:1002DC001846BD465DF8047B704780B400AF4FF004
:1002EC00B043D3F8943003F08053B3F1805F01D165
:1002FC00012300E000231846BD465DF8047B7047DF
:10030C0080B485B000AF78604FF0B0431A6D4FF0F9
:10031C00B0417B6813430B654FF0B0431A6D7B689B
:10032C001340FB60FB6800BF1437BD465DF8047BCF
:10033C007047000080B400AF044B1B681B0C9BB2D1
:10034C001846BD465DF8047B704700BF002004E0F2
:10035C0080B483B000AF786039607B685A683B68C2
:10036C001B041A437B685A6000BF0C37BD465DF80E
:10037C00047B704780B483B000AF786039607B68D1
:10038C005A683B681A437B685A6000BF0C37BD46FD
:10039C005DF8047B704780B483B000AF786039603F
:1003AC007B685A693B681B041A437B685A6100BF1F
:1003BC000C37BD465DF8047B704780B483B000AF4A
:1003CC00786039607B685A693B681A437B685A616C
:1003DC0000BF0C37BD465DF8047B704780B483B01A
:1003EC0000AF786039607B683A689A6000BF0C3760
:1003FC00BD465DF8047B704780B483B000AF786075
:10040C0039607B683A689A6100BF0C37BD465DF86D
:10041C00047B704780B483B000AF78607B68FF22A8
:10042C005A6200BF0C37BD465DF8047B704780B440
:10043C0083B000AF78607B68CA225A627B68532213
:10044C005A6200BF0C37BD465DF8047B704780B420
:10045C0083B000AF786039607B689B6823F007023B
:10046C003B681A437B689A6000BF0C37BD465DF849
:10047C00047B704780B500AF044B4FF400421A6107
:10048C0000F024F800F064F800BF80BD0040005874
:10049C0080B500AF00F070F800F088F80349002038
:1004AC0000F0C0FD00F090F800BF80BD34030020C8
:1004BC0080B400AF00BFBD465DF8047B704780B5CB
:1004CC0000AF0020FFF78EFE00BF80BD80B500AFEF
:1004DC0000F004F800F01AF800BF80BD80B500AF42
:1004EC00FFF7E8FE0346002B0DD0FFF7F6FE0346A0
:1004FC00002B08D101F0BCFE01F0BAFEFFF7B8FEEC
:10050C00FFF7C7FE00BF00BF80BD000080B500AF85
:10051C004FF48010FFF7F4FE3F210C48FFF75EFF0D
:10052C003F210A48FFF768FF3F210848FFF710FFFB
:10053C003F210648FFF72FFF3F210448FFF71AFF22
:10054C003F210248FFF739FF00BF80BD000C005867
:10055C0080B582B000AF002005F044FD78607B6868
:10056C00002B05D07B689B791846FFF74FFE00BF28
:10057C0000BF0837BD4680BD80B500AFFFF798FFC0
:10058C00FFF79DFF00F002F800BF80BD80B500AF03
:10059C000548FFF74CFF00210348FFF758FF0248BE
:1005AC00FFF738FF00BF80BD0028004080B500AFCA
:1005BC004FF40040FFF748FE07F026F80420FFF741
:1005CC00FBFD00BF80BD000080B588B000AF05F01A
:1005DC00C7FA114A0021042007F042F90F4B3B6087
:1005EC000F4B7B603B4619460E4805F07FF90E4BCE
:1005FC00BB600E4BFB600E4B3B6140F23C537B618E
:10060C0007F10803184605F0EDFB05F0A3FA00BF4F
:10061C002037BD4680BD00BF315900082407032098
:10062C0041060008590600083C0903203008032045
:10063C00E801032080B483B000AF0346FB7100BF18
:10064C000C37BD465DF8047B7047000080B588B060
:10065C0000AF78607B685B680B33FB6107F10C03C0
:10066C00184604F0FFFEFB691B889BB2A3F51243EE
:10067C00072B1BD801A252F823F000BFA9060008D3
:10068C00B1060008B9060008B9060008B90600084A
:10069C00B9060008B9060008B9060008786800F029
:1006AC001CF804E0786800F007F800E000BF00BF19
:1006BC002037BD4680BD00BF80B485B000AF7860E8
:1006CC007B685B680B33FB60FB680233BB6000BF6D
:1006DC001437BD465DF8047B704780B58AB000AF17
:1006EC00786007F10C0300221A605A609A609A81B4
:1006FC0000237B627B685B680B333B623B6A023393
:10070C00FB61FB691B78002B17D1FFF739FD0D231B
:10071C003B737F23BB73FFF70DFE78627B6A9BB242
:10072C003B8307F10C03184604F086FE05F064FDCC
:10073C000021012006F07AFF07E0FB691B78012BF2
:10074C0003D17B6800221A7000BF00BF2837BD465A
:10075C0080BD80B500AF4FF0FF3006F097FF00BFB3
:10076C0080BD80B400AF00BFBD465DF8047B704710
:10077C0080B582B000AF786039604FF0FF3006F082
:10078C0085FF00BF0837BD4680BD80B582B000AF85
:10079C0078600021042007F085F800BF0837BD46BB
:1007AC0080BD80B582B000AF7860022007F0E6F81B
:1007BC0000BF0837BD4680BD80B582B000AF786001
:1007CC00022007F0FBF800BF0837BD4680BD0000D3
:1007DC0080B483B000AF7860064BD3F88020054915
:1007EC007B681343C1F8803000BF0C37BD465DF801
:1007FC00047B70470008005880B483B000AF786069
:10080C00054B1A6804497B6813430B6000BF0C3717
:10081C00BD465DF8047B70470008005880B483B077
:10082C0000AF0D4B9B6A9BB27B600B4B9B6A9BB2E0
:10083C003B6005E03B687B60074B9B6A9BB23B606F
:10084C007A683B689A42F5D13B6818460C37BD462E
:10085C005DF8047B704700BF0028004080B485B071
:10086C0000AF03460A46FB711346BB71BA791D49AA
:10087C0013465B001344DB000B4415331B78FB73EE
:10088C00FB7B062B09D0FA7B164913465B001344FD
:10089C00DB000B441433FA791A70FA7911491346B8
:1008AC005B001344DB000B441533FA7B1A70FA79A6
:1008BC000C4913465B001344DB000B441433BA7928
:1008CC001A70BA79074913465B001344DB000B44DA
:1008DC001533FA791A7000BF1437BD465DF8047BE6
:1008EC00704700BF2C00002080B485B000AF0346D9
:1008FC000A46FB711346BB71294B1B78DBB2BA79E4
:10090C009A4232D0BA79274913465B001344DB0074
:10091C000B4414331B78FB73FA7B224913465B00A0
:10092C001344DB000B441533FA791A70FA791D491C
:10093C0013465B001344DB000B441533BA791A7071
:10094C00FA79184913465B001344DB000B4414334B
:10095C00FA7B1A70BA79134913465B001344DB0017
:10096C000B441433FA791A7014E0FA790D491346D2
:10097C005B001344DB000B441533BA791A70BA7957
:10098C00084913465B001344DB000B441433FA791B
:10099C001A7000BF1437BD465DF8047B704700BF6A
:1009AC00BC0000202C00002080B584B000AF0346B2
:1009BC00FB714E4B1B78DBB2062B18D14B4B1B78C3
:1009CC00DAB24B4B1A70494AFB791370FA794949E0
:1009DC0013465B001344DB000B44153306221A70DC
:1009EC00454B4FF0FF321A600023FB8178E000F09A
:1009FC0009F90346FB81FA793E4913465B0013441F
:100A0C00DB000B4408331968FB89FA79194439481F
:100A1C0013465B001344DB00034408331960FA7976
:100A2C00344913465B001344DB000B4408331B684A
:100A3C00BB602E4B1B78DBB219462E4A0B465B0073
:100A4C000B44DB00134408331B68BA689A4237D353
:100A5C00264B1B787B737A7B264913465B00134429
:100A6C00DB000B4415331B783B7313E07A7B214975
:100A7C0013465B001344DB000B4415331B787B736C
:100A8C007A7B1C4913465B001344DB000B44153383
:100A9C001B783B733B7B062B0BD03A7B15491346DB
:100AAC005B001344DB000B4408331B68BA689A42A2
:100ABC00DCD27A7BFB7911461846FFF7CFFE0FE0AC
:100ACC000A4B1B78DAB2FB7911461846FFF70CFF7C
:100ADC00064B1B78DAB2064B1A70044AFB7913707A
:100AEC00FB8918461037BD4680BD00BFBC000020F6
:100AFC00BD0000202C000020C000002080B485B078
:100B0C0000AF03460A46FB711346BB71394B1B7889
:100B1C00DBB2FA799A4211D1364B1B78DAB2364BEA
:100B2C001A70FA79354913465B001344DB000B4409
:100B3C0015331B78DAB22F4B1A703EE0FA792F4935
:100B4C0013465B001344DB000B4414331B78FB731C
:100B5C00FA792A4913465B001344DB000B44153326
:100B6C001B78BB73F979FA7B24480B465B000B446A
:100B7C00DB00034415331B78D8B2204913465B00C5
:100B8C001344DB000B44153302461A70BB7B062B57
:100B9C0013D0F979BA7B19480B465B000B44DB0088
:100BAC00034414331B78D8B2144913465B00134426
:100BBC00DB000B44143302461A70FA790F491346C2
:100BCC005B001344DB000B440C3301221A70094BFD
:100BDC001B78DBB2062B07D1BB79002B04D1084B59
:100BEC004FF0FF321A6000BF00BF1437BD465DF8EE
:100BFC00047B7047BC000020BD0000202C000020AE
:100C0C00C000002080B582B000AF1A4B1B68B3F156
:100C1C00FF3F26D0FFF702FE7860164B1B687A6800
:100C2C009A4205D8134B1A687B68D31A7B600AE08A
:100C3C00114B1B881A467B68D31A3B600D4B1B6803
:100C4C003A6813447B600D4B1B781A467B6802FB99
:100C5C0003F37B600A4B1B781A467B68D3407B609E
:100C6C0001E000237B607B689BB218460837BD46C9
:100C7C0080BD00BFC0000020C6010020C5010020BF
:100C8C00C401002080B582B000AF0346FB80FB8816
:100C9C00002B08D1FFF7C2FD0346244A1360032042
:100CAC0001F097F83EE0FB88012B03D8204B1B7812
:100CBC00012B02D0FB88013BFB8000BF1D4B1B6846
:100CCC001B68DB6803F00403002BF7D0194B1B687F
:100CDC001B68DB68DAB2174B1B681B6862F4906206
:100CEC00DA60154B4FF40022DA60032001F07FF834
:100CFC00124B5B691B0C1B04FA88104913434B61A4
:100D0C00FFF78CFD0346094A13600A4B1B681B68EE
:100D1C009A68084B1B681B6842F480629A60AFF3B8
:100D2C00008000BF0837BD4680BD00BFC00000205A
:100D3C00C4010020C0010020000800580028004019
:100D4C0080B584B000AF474B9B6803F48063B3F568
:100D5C00806F08D100BF444B1B681B68DB6803F035
:100D6C000403002BF7D1404B1B681B689A683E4B61
:100D7C001B681B6822F480629A603C4B1B78FB73E7
:100D8C00FA7B3B4913465B001344DB000B440833EE
:100D9C001B68BB60FFF736FF0346FB80FB88BA6815
:100DAC009A4205D20023BB81324B01221A704DE0CE
:100DBC00FB88314A128892B213441A46BB6893429C
:100DCC0006D92D4B1B88BB812A4B00221A703DE0A3
:100DDC00BB689AB2FB88D31ABB81264B01221A70CE
:100DEC0034E0FA7B224913465B001344DB000B44CE
:100DFC0008331A68FB889A420AD2FA7B1C491346BC
:100E0C005B001344DB000B44083300221A6013E030
:100E1C00FA7B174913465B001344DB000B44083381
:100E2C001968FB88FA7BC91A114813465B001344F6
:100E3C00DB00034408331960FA7B0D4913465B0051
:100E4C001344DB000B4415331B78FB73FB7B062B25
:100E5C00C7D1BB891846FFF715FF00BF1037BD4639
:100E6C0080BD00BF00280040C0010020BC00002055
:100E7C002C000020C4000020C801002080B58AB0DE
:100E8C0000AFEFF310837B617B697B6272B600BFAE
:100E9C005F4B1B681B68CA225A625D4B1B681B6840
:100EAC0053225A625A4B1B681B689A68584B1B6832
:100EBC001B6822F480629A60564B1B7887F82330AB
:100ECC0097F82320544913465B001344DB000B4472
:100EDC000C331B78DBB2022B72D197F823204E49CE
:100EEC0013465B001344DB000B441B68FB6197F853
:100EFC002320494913465B001344DB000B44103399
:100F0C001B68BB61454B1B78DBB2002B50D097F8AC
:100F1C002320414913465B001344DB000B440D3383
:100F2C001B78DBB2012B26D197F823300121184610
:100F3C00FFF7E4FD7B6A3B613B6983F3108800BFDC
:100F4C0097F82320344913465B001344DB000B4411
:100F5C0004331A6897F823301146184600F0D4F978
:100F6C002B4B1B681B68CA225A62294B1B681B68D7
:100F7C0053225A6214E07B6AFB60FB6883F310888F
:100F8C0000BF97F82330184600F032F9204B1B684D
:100F9C001B68CA225A621E4B1B681B6853225A627A
:100FAC0097F82330FA691946B86900F035FA25E04C
:100FBC00FFF7C6FE7B6ABB60BB6883F310881DE03D
:100FCC0000BF134B1B681B68DB6803F00403002B8A
:100FDC00F7D00F4B1B681B68DB68DAB20C4B1B6835
:100FEC001B6862F49062DA600D4B4FF40022DA60F9
:100FFC007B6A7B607B6883F3108800BF044B1B68A3
:10100C001B68FF225A6200BF2837BD4680BD00BF57
:10101C00C0010020BC0000202C000020C4000020D7
:10102C000008005880B588B000AF03463960FB71EA
:10103C00644A3B681360634B1B681B68CA225A6284
:10104C00604B1B681B6853225A625F4B9B685E4A5D
:10105C0043F0200393605C4B9B68DBB203F0070307
:10106C00DBB2C3F10403DAB2584B1A70564B1B694E
:10107C0003F4FE034FF4FE023A613A6992FAA2F2CB
:10108C00FA60FA687A617A69002A01D1202203E0B9
:10109C007A69B2FA82F2D2B2D340DBB20133DAB25D
:1010AC004B4B1A70484B1B699BB2C3F30E039BB29C
:1010BC0001339AB2474B1A80464B1B88013B444A7A
:1010CC00127802FB03F3A3F5A073404A1278D340C5
:1010DC00BB61BB694FF6FE72934204D93E4B4FF68F
:1010EC00FF721A8003E0BB699AB23B4B1A804FF433
:1010FC000020FFF781FB4FF40020FFF769FBFB7921
:10110C00002B43D1354B01221A70354B4FF0FF3277
:10111C001A600023FB770CE0FA7F324913465B0020
:10112C001344DB000B440C3300221A70FB7F013399
:10113C00FB77FB7F052BEFD92B4B06221A70214B2B
:10114C001B681B689A681F4B1B681B6822F4806223
:10115C009A601C4B1B681B68DB68DAB2194B1B6866
:10116C001B6862F49062DA60204B4FF40022DA6064
:10117C00032000F03CFE134B1B681B689A68114B54
:10118C001B681B6842F480429A600AE00D4B1B6896
:10119C001B68DB6803F48063002B02D0032000F093
:1011AC0018FE084B1B681B68FF225A6200220321A1
:1011BC00032000F0CCFD032000F0E3FD00BF20373E
:1011CC00BD4680BDC001002000280040C4010020A5
:1011DC00C5010020C6010020C8010020C400002069
:1011EC00C00000202C000020BC000020000800588B
:1011FC0080B586B000AF0346FB71EFF31083FB6044
:10120C00FB687B6172B600BF032000F0C8FD384B51
:10121C001B681B68CA225A62354B1B681B68532219
:10122C005A62FA79334913465B001344DB000B44D2
:10123C000C331B78DBB2022B48D1FB79002118460A
:10124C00FFF75CFC2C4B1B78FB74FB7C062B35D11D
:10125C002A4B9B6803F48063B3F5806F08D100BF01
:10126C00234B1B681B68DB6803F00403002BF7D1CE
:10127C001F4B1B681B689A681D4B1B681B6822F46C
:10128C0080629A6000BF1A4B1B681B68DB6803F016
:10129C000403002BF7D0164B1B681B68DB68DAB213
:1012AC00134B1B681B6862F49062DA60144B4FF4AA
:1012BC000022DA60032000F09AFD07E0114B1B7846
:1012CC00DBB2FA7C9A4201D0FFF73AFD084B1B685F
:1012DC001B68FF225A62032000F053FD7B69BB6040
:1012EC00BB6883F3108800BF00BF1837BD4680BDB4
:1012FC00C00100202C000020BC0000200028004071
:10130C0000080058BD00002080B586B000AF034631
:10131C003960FB71FA793C4913465B001344DB00DE
:10132C000B440C331B78DBB2022B03D1FB79184630
:10133C00FFF75EFFEFF31083FB60FB687B6172B617
:10134C0000BF032000F02BFD304B1B681B68CA222A
:10135C005A622E4B1B681B6853225A62FA792A492F
:10136C0013465B001344DB000B440C3302221A704F
:10137C00FA79254913465B001344DB000B44083310
:10138C003A681A60FA79204913465B001344DB0073
:10139C000B4404333A681A60FB791846FFF704FBD8
:1013AC0003467B821A4B1B787B741A4B1B78DBB27F
:1013BC007A7C9A4202D0FFF7C3FC13E0FA79124907
:1013CC0013465B001344DB000B44083319687B8A1B
:1013DC00FA79C91A0C4813465B001344DB0003442A
:1013EC0008331960094B1B681B68FF225A620320E3
:1013FC0000F0C7FC7B69BB60BB6883F3108800BF3F
:10140C0000BF1837BD4680BD2C000020C001002055
:10141C00BC000020BD00002080B584B000AFF86097
:10142C000B467A60FB727B68984700BF1037BD464D
:10143C0080BD80B483B000AF78604FF0B043D3F878
:10144C00903023F018024FF0B0417B681343C1F881
:10145C00903000BF0C37BD465DF8047B704780B4FC
:10146C0085B000AF78604FF0B043DA6C4FF0B0410C
:10147C007B681343CB644FF0B043DA6C7B6813404A
:10148C00FB60FB6800BF1437BD465DF8047B7047FA
:10149C0080B500AF00F09AFAFEF7ECFF00F010F800
:1014AC0000F070F800F08EF800F0DCF800F09EF818
:1014BC0000F0A4F8FEF7ECFFFFF74BF9FCE7000097
:1014CC0080B59AB000AF07F12003482200211846DE
:1014DC0006F03CFB3B1D00221A605A609A60DA60F1
:1014EC001A615A619A6100F0C3FE0020FFF7A1FF58
:1014FC00234B1B6823F4C063214A43F4007313602D
:10150C001F4B1B6803F4C0633B603B6827233B62A3
:10151C004FF480337B620123BB624FF48073FB6218
:10152C000123FB6340233B6300233B64A0237B64C8
:10153C000023FB6407F12003184601F015FA03465B
:10154C00002B01D000F0C6F86F237B600023BB603A
:10155C000023FB6000233B6100237B610023BB6104
:10156C000023FB613B1D0121184601F089FD034658
:10157C00002B01D000F0AEF800BF6837BD4680BD2F
:10158C000004005880B594B000AF3B4650220021B7
:10159C00184606F0DBFA4FF440533B604FF480439F
:1015AC007B640023BB641023FB643B46184602F0AB
:1015BC007CF90346002B01D000F08CF800BF5037AB
:1015CC00BD4680BD80B500AF064B074A1A60054882
:1015DC0000F0C8FD0346002B01D000F07BF800BFE3
:1015EC0080BD00BFF8020020000C005880B400AF92
:1015FC0000BFBD465DF8047B7047000080B500AFAE
:10160C00164B174A1A60154B00225A60134B0F22C7
:10161C009A60124B47F6FF72DA60104B00221A6187
:10162C000E4B00229A610D4B0022DA610B4B00220B
:10163C005A610A4802F0C0FB0346002B01D000F0AF
:10164C0049F800220021054802F0A4FC0346002BB7
:10165C0001D000F03FF800BF80BD00BF3403002074
:10166C000028004080B586B000AF3B1D00221A60F8
:10167C005A609A60DA601A610420FFF7F0FE0120CC
:10168C00FFF7EDFE01224FF400514FF0904000F0B7
:10169C002DFD4FF480637B604FF48813BB600123F6
:1016AC00FB603B1D19464FF0904000F0AFFB4FF430
:1016BC0000537B600123BB600023FB6000233B6174
:1016CC003B1D19464FF0904000F0A0FB00BF1837AF
:1016DC00BD4680BD80B400AF72B600BFFEE780B4DB
:1016EC0000AF4FF0B043D3F890304FF0B04243F41A
:1016FC000043C2F8903000BFBD465DF8047B7047D4
:10170C0080B485B000AF78604FF0B0431A6D4FF0E5
:10171C00B0417B6813430B654FF0B0431A6D7B6887
:10172C001340FB60FB6800BF1437BD465DF8047BBB
:10173C00704780B485B000AF78604FF0B0439A6DBD
:10174C004FF0B0417B6813438B654FF0B0439A6DFB
:10175C007B681340FB60FB6800BF1437BD465DF827
:10176C00047B704780B500AF4FF40020FFF7C8FF33
:10177C00002200212E2000F0EAFA2E2000F001FBBE
:10178C0000BF80BD80B582B000AF78607B681B68FD
:10179C000D4A934213D14FF48010FFF7B1FF002292
:1017AC0000212C2000F0D3FA2C2000F0EAFA0022C1
:1017BC0000212D2000F0CBFA2D2000F0E2FA00BF22
:1017CC000837BD4680BD00BF000C005880B596B0F0
:1017DC0000AF786007F1080350220021184606F08C
:1017EC00B5F97B681B68124A93421DD14FF4006314
:1017FC00BB604FF48073BB6407F10803184602F01A
:10180C0054F80346002B01D0FFF764FFFFF767FF86
:10181C004FF48060FFF78DFF00220021032000F0C1
:10182C0096FA032000F0ADFA00BF5837BD4680BDD4
:10183C000028004080B400AFFEE780B400AFFEE7A4
:10184C0080B400AFFEE780B400AFFEE780B400AF19
:10185C00FEE780B400AF00BFBD465DF8047B704767
:10186C0080B400AF00BFBD465DF8047B704780B408
:10187C0000AF00BFBD465DF8047B704780B500AF7C
:10188C0000F0FEF800BF80BD80B500AFFFF7F6FAA0
:10189C0000BF80BD80B500AF05F072FD00BF80BDFC
:1018AC0080B500AF05F0A4FD00BF80BD80B500AFD2
:1018BC0000F034FC00BF80BD80B400AF244BD3F8E3
:1018CC008830234A43F47003C2F888304FF0B04399
:1018DC001B684FF0B04243F0010313604FF0B0436C
:1018EC004FF4E0229A604FF0B0431A684FF0B041C9
:1018FC00184B13400B604FF0B043D3F894304FF0BB
:10190C00B04223F00503C2F894304FF0B043D3F843
:10191C0098304FF0B04223F00103C2F898304FF0EA
:10192C00B0430D4ADA604FF0B0430B4A1A614FF0E6
:10193C00B0431B684FF0B04223F4802313604FF088
:10194C00B04300229A6100BFBD465DF8047B70472E
:10195C0000ED00E0FBFEF6FA00100422D458C4504F
:10196C000433C4188C42F9D37047036004308842A6
:10197C00FBD370470C488546FFF79EFF0B480C497C
:10198C000C4A0023FFF7EDFF0B480C490023FFF72F
:10199C00EEFF0B480B490023FFF7E9FF06F0A4F814
:1019AC00FFF776FDFEE70000000003200400002096
:1019BC002C0000200C7E0008A401002060030020F5
:1019CC00E0010320570A0320FEE7000080B582B037
:1019DC0000AF0023FB710C4B1B680B4A43F4807364
:1019EC001360032000F0A8F90F2000F00FF8034655
:1019FC00002B02D00123FB7101E0FFF7B3FEFB7952
:101A0C0018460837BD4680BD0040005880B584B0EC
:101A1C0000AF78600023FB73174B1B78002B24D08E
:101A2C0001F0DAFC0246144B1B7819464FF47A731A
:101A3C00B3FBF1F3B2FBF3F3184600F0BEF9034627
:101A4C00002B0FD17B680F2B09D8002279684FF03F
:101A5C00FF3000F07CF9094A7B68136007E0012332
:101A6C00FB7304E00123FB7301E00123FB73FB7B9D
:101A7C0018461037BD4680BD0C0000200800002021
:101A8C0080B400AF064B1B781A46064B1B681344F8
:101A9C00044A136000BFBD465DF8047B704700BF6D
:101AAC000C0000205803002080B400AF034B1B68CF
:101ABC001846BD465DF8047B704700BF58030020F4
:101ACC0080B400AF034B1B681846BD465DF8047B21
:101ADC00704700BF0800002080B485B000AF78606C
:101AEC007B6803F00703FB600C4BDB68BB60BA68D8
:101AFC004FF6FF031340BB60FB681A02BB6813432D
:101B0C0043F0BF6343F40033BB60044ABB68D3604B
:101B1C0000BF1437BD465DF8047B704700ED00E054
:101B2C0080B400AF044BDB681B0A03F007031846B4
:101B3C00BD465DF8047B704700ED00E080B483B0D7
:101B4C0000AF0346FB7197F90730002B0BDBFB79D9
:101B5C0003F01F02074997F907305B09012000FACF
:101B6C0002F241F8232000BF0C37BD465DF8047B20
:101B7C00704700BF00E100E080B483B000AF0346C3
:101B8C00FB7197F90730002B12DBFB7903F01F0276
:101B9C000A4997F907305B09012000FA02F2203359
:101BAC0041F82320BFF34F8F00BFBFF36F8F00BFEF
:101BBC0000BF0C37BD465DF8047B704700E100E0C8
:101BCC0080B483B000AF0346FB7197F90730002B4C
:101BDC000CDBFB7903F01F02074997F907305B090F
:101BEC00012000FA02F2403341F8232000BF0C37E9
:101BFC00BD465DF8047B704700E100E080B483B023
:101C0C0000AF0346FB7197F90730002B0CDBFB7917
:101C1C0003F01F02074997F907305B09012000FA0E
:101C2C0002F2603341F8232000BF0C37BD465DF84B
:101C3C00047B704700E100E080B483B000AF034642
:101C4C003960FB7197F90730002B0ADB3B68DAB27D
:101C5C000C4997F907301201D2B20B4483F80023D8
:101C6C000AE03B68DAB20849FB7903F00F03043B46
:101C7C001201D2B20B441A7600BF0C37BD465DF888
:101C8C00047B704700E100E000ED00E080B489B017
:101C9C0000AFF860B9607A60FB6803F00703FB6182
:101CAC00FB69C3F10703042B28BF0423BB61FB6949
:101CBC000433062B02D9FB69033B00E000237B6154
:101CCC004FF0FF32BB6902FA03F3DA43BB681A40E8
:101CDC007B699A404FF0FF317B6901FA03F3D943DA
:101CEC007B680B40134318462437BD465DF8047BD4
:101CFC007047000080B582B000AF78607B68013B14
:101D0C00B3F1807F01D301230FE00A4A7B68013BCA
:101D1C0053600F214FF0FF30FFF78EFF054B002271
:101D2C009A60044B07221A60002318460837BD46F8
:101D3C0080BD00BF10E000E080B582B000AF7860DD
:101D4C007868FFF7C9FE00BF0837BD4680BD80B577
:101D5C0086B000AF0346B9607A60FB73FFF7E0FE14
:101D6C0078617A68B9687869FFF790FF024697F94D
:101D7C000F3011461846FFF75FFF00BF1837BD46FE
:101D8C0080BD80B582B000AF0346FB7197F9073078
:101D9C001846FFF7D3FE00BF0837BD4680BD80B59F
:101DAC0082B000AF0346FB7197F907301846FFF776
:101DBC00E3FE00BF0837BD4680BD80B582B000AFE2
:101DCC0078607868FFF796FF034618460837BD46DB
:101DDC0080BD80B582B000AF0346FB7197F9073028
:101DEC001846FFF7EDFE00BF0837BD4680BD80B535
:101DFC0082B000AF0346FB7197F907301846FFF726
:101E0C00FDFE00BF0837BD4680BD000080B487B022
:101E1C0000AF7860396000237B614CE13B681A6845
:101E2C0001217B6901FA03F31340FB60FB68002B73
:101E3C0000F03E813B685B6803F00303012B05D087
:101E4C003B685B6803F00303022B30D17B689B6813
:101E5C003B617B695B00032202FA03F3DB433A69C3
:101E6C0013403B613B68DA687B695B0002FA03F361
:101E7C003A6913433B617B683A699A607B685B689B
:101E8C003B6101227B6902FA03F3DB433A6913409D
:101E9C003B613B685B681B0903F001027B6902FA3A
:101EAC0003F33A6913433B617B683A695A603B68B8
:101EBC005B6803F00303032B17D07B68DB683B6183
:101ECC007B695B00032202FA03F3DB433A6913409C
:101EDC003B613B689A687B695B0002FA03F33A69E1
:101EEC0013433B617B683A69DA603B685B6803F0DB
:101EFC000303022B23D17B69DA087B68083253F881
:101F0C0022303B617B6903F007039B000F2202FA2E
:101F1C0003F3DB433A6913403B613B681A697B6905
:101F2C0003F007039B0002FA03F33A6913433B6186
:101F3C007B69DA087B680832396943F822107B68C0
:101F4C001B683B617B695B00032202FA03F3DB43F2
:101F5C003A6913403B613B685B6803F003027B69A1
:101F6C005B0002FA03F33A6913433B617B683A69FD
:101F7C001A603B685B6803F44033002B00F09880D8
:101F8C00544A7B699B08023352F823303B617B69CE
:101F9C0003F003039B000F2202FA03F3DB433A69BD
:101FAC0013403B617B68B3F1904F19D07B684A4A70
:101FBC00934213D07B68494A93420DD07B68484AC0
:101FCC00934207D07B68474A934201D1042308E02F
:101FDC00072306E0032304E0022302E0012300E0D0
:101FEC0000237A6902F00302920093403A6913438A
:101FFC003B6138497B699B0802333A6941F82320DD
:10200C00394B1B683B61FB68DB433A6913403B610E
:10201C003B685B6803F48013002B03D03A69FB68C0
:10202C0013433B61304A3B6913602F4B5B683B6148
:10203C00FB68DB433A6913403B613B685B6803F424
:10204C000013002B03D03A69FB6813433B61264A0B
:10205C003B695360244BD3F880303B61FB68DB4316
:10206C003A6913403B613B685B6803F48033002B97
:10207C0003D03A69FB6813433B611B4A3B69C2F8C6
:10208C008030194BD3F884303B61FB68DB433A69F1
:10209C0013403B613B685B6803F40033002B03D0B7
:1020AC003A69FB6813433B610F4A3B69C2F88430C1
:1020BC007B6901337B613B681A687B6922FA03F305
:1020CC00002B7FF4ABAE00BF00BF1C37BD465DF8E4
:1020DC00047B7047000001400004004800080048E1
:1020EC00000C0048001000480008005880B483B071
:1020FC0000AF78600B467B8013467B707B78002B9F
:10210C0003D07A887B689A6102E07A887B689A624D
:10211C0000BF0C37BD465DF8047B704780B582B0BC
:10212C0000AF0A4BDB687B60084B1A687B68DB43AB
:10213C00064913400B60054A7B685360786800F0D1
:10214C0007F800BF0837BD4680BD00BF001500581A
:10215C0080B483B000AF786000BF0C37BD465DF82B
:10216C00047B704780B584B000AF78600023FB73AC
:10217C007B68002B1ED0134BBB607B6893F8383008
:10218C00DBB2002B02D17868FFF7FCFAB86800F0DC
:10219C005BF8BB681B6843F00112BB681A60786877
:1021AC0000F02CF87B6800225A637B68012283F8CC
:1021BC00382001E00123FB73FB7B18461037BD462A
:1021CC0080BD00BF000C005880B485B000AFF86033
:1021DC00B9601346FB7100BF1437BD465DF8047B34
:1021EC00704780B485B000AFF860B9601346FB71DE
:1021FC0000BF1437BD465DF8047B704780B485B0D2
:10220C0000AF78600023FB600FE07A68FB689B00EE
:10221C0013440B4A5A607A68FB6806339B001344DC
:10222C00084A5A60FB680133FB60FB68052BECD94C
:10223C0000BF00BF1437BD465DF8047B704700BF7C
:10224C00D5210008EF21000880B483B000AF78607E
:10225C007B6800221A607B684FF03F125A607B68E3
:10226C003F229A6000BF0C37BD465DF8047B704777
:10227C0080B400AF054B1B68044A43F480731360B1
:10228C0000BFBD465DF8047B704700BF00040058DA
:10229C0080B400AF044B1B6803F4C0631846BD4602
:1022AC005DF8047B704700BF0004005880B400AF99
:1022BC004FF0B0431B6803F48013B3F5801F01D1BA
:1022CC00012300E000231846BD465DF8047B7047EF
:1022DC0080B400AF4FF0B0431B684FF0B04243F4F2
:1022EC008033136000BFBD465DF8047B704780B43B
:1022FC0000AF4FF0B0431B684FF0B04223F4803373
:10230C00136000BFBD465DF8047B704780B400AF1E
:10231C004FF0B0431B6803F40033B3F5003F01D119
:10232C00012300E000231846BD465DF8047B70478E
:10233C0080B400AF4FF0B0431B684FF0B04243F491
:10234C008073136000BFBD465DF8047B704780B49A
:10235C0000AF4FF0B0431B684FF0B04223F48073D2
:10236C00136000BFBD465DF8047B704780B400AFBE
:10237C004FF0B0431B6803F48063B3F5806F01D159
:10238C00012300E000231846BD465DF8047B70472E
:10239C0080B483B000AF78604FF0B0435B6823F03B
:1023AC00FE427B681B064FF0B04113434B6000BFED
:1023BC000C37BD465DF8047B704780B400AF4FF01E
:1023CC00B043D3F898304FF0B04243F00103C2F859
:1023DC00983000BFBD465DF8047B704780B400AFF9
:1023EC004FF0B043D3F898304FF0B04223F00103D4
:1023FC00C2F8983000BFBD465DF8047B704780B4CE
:10240C0000AF4FF0B043D3F8983003F00203022B27
:10241C0001D1012300E000231846BD465DF8047B82
:10242C00704780B400AF4FF0B043D3F890304FF00A
:10243C00B04243F00103C2F8903000BFBD465DF8D6
:10244C00047B704780B400AF4FF0B043D3F89030AA
:10245C004FF0B04223F00103C2F8903000BFBD46EC
:10246C005DF8047B704780B400AF4FF0B043D3F8F5
:10247C0090304FF0B04243F00403C2F8903000BFEC
:10248C00BD465DF8047B704780B400AF4FF0B0439D
:10249C00D3F890304FF0B04223F00403C2F89030E0
:1024AC0000BFBD465DF8047B704780B400AF4FF0B1
:1024BC00B043D3F8903003F00203022B01D1012377
:1024CC0000E000231846BD465DF8047B704780B4DD
:1024DC0000AF4FF0B043D3F894304FF0B04243F01C
:1024EC000103C2F8943000BFBD465DF8047B704711
:1024FC0080B400AF4FF0B043D3F894304FF0B042FB
:10250C0023F00103C2F8943000BFBD465DF8047B94
:10251C00704780B400AF4FF0B043D3F8943003F061
:10252C000203022B01D1012300E000231846BD4613
:10253C005DF8047B704780B400AF4FF0B043D3F824
:10254C0094304FF0B04243F00403C2F8943000BF13
:10255C00BD465DF8047B704780B400AF4FF0B043CC
:10256C00D3F894304FF0B04223F00403C2F8943007
:10257C0000BFBD465DF8047B704780B400AF4FF0E0
:10258C00B043D3F8943003F00803082B01D1012396
:10259C0000E000231846BD465DF8047B704780B40C
:1025AC0083B000AF78604FF0B043D3F8943023F48D
:1025BC0070627B681B024FF0B0411343C1F894303A
:1025CC0000BF0C37BD465DF8047B704780B400AF8C
:1025DC004FF0B0431B684FF0B04243F0010313605F
:1025EC0000BFBD465DF8047B704780B400AF4FF070
:1025FC00B0431B684FF0B04223F00103136000BFDF
:10260C00BD465DF8047B704780B400AF4FF0B0431B
:10261C001B6803F00203022B01D1012300E000230D
:10262C001846BD465DF8047B704780B483B000AF9C
:10263C0078604FF0B0431B6823F0F0024FF0B041CC
:10264C007B6813430B6000BF0C37BD465DF8047B01
:10265C00704780B483B000AF4FF0B0431B6803F0F9
:10266C00F0037B607B68B02B01D9B0237B607B6867
:10267C0018460C37BD465DF8047B704780B483B0B8
:10268C0000AF78604FF0B0435B6823F47F427B6807
:10269C001B024FF0B04113434B6000BF0C37BD46DB
:1026AC005DF8047B704780B483B000AF78604FF066
:1026BC00B0439B6823F003024FF0B0417B68134397
:1026CC008B6000BF0C37BD465DF8047B704780B44F
:1026DC0000AF4FF0B0439B6803F00C031846BD46A7
:1026EC005DF8047B704780B483B000AF78604FF026
:1026FC00B0439B6823F0F0024FF0B0417B6813436A
:10270C008B6000BF0C37BD465DF8047B704780B40E
:10271C0083B000AF78604FF0B043D3F8083123F0AA
:10272C00F0024FF0B0417B681343C1F8083100BF91
:10273C000C37BD465DF8047B704780B483B000AFA6
:10274C0078604FF0B043D3F8083123F00F027B6868
:10275C001B094FF0B0411343C1F8083100BF0C37CF
:10276C00BD465DF8047B704780B483B000AF7860E1
:10277C004FF0B0439B6823F4E0624FF0B0417B68AC
:10278C0013438B6000BF0C37BD465DF8047B70476C
:10279C0080B483B000AF78604FF0B0439B6823F4F3
:1027AC0060524FF0B0417B6813438B6000BF0C3715
:1027BC00BD465DF8047B704780B400AF4FF0B0436A
:1027CC009B6803F0F0031846BD465DF8047B704728
:1027DC0080B400AF4FF0B043D3F808311B0103F0C5
:1027EC00F0031846BD465DF8047B704780B400AF1B
:1027FC004FF0B0431B684FF0B04243F0807313604E
:10280C0000BFBD465DF8047B704780B400AF4FF04D
:10281C00B0431B684FF0B04223F08073136000BFCD
:10282C00BD465DF8047B704780B400AF4FF0B043F9
:10283C001B6803F00073B3F1007F01D1012300E0AA
:10284C0000231846BD465DF8047B704780B400AF8A
:10285C004FF0B043DB681B0A03F07F031846BD46FC
:10286C005DF8047B704780B400AF4FF0B043DB6879
:10287C0003F060431846BD465DF8047B704780B496
:10288C0000AF4FF0B043DB6803F070031846BD4651
:10289C005DF8047B704780B400AF4FF0B043DB6849
:1028AC0003F003031846BD465DF8047B704780B403
:1028BC0000AF4FF0B0439B6803F48033B3F5803F17
:1028CC0001D1012300E000231846BD465DF8047BCE
:1028DC00704780B400AF4FF0B043D3F8083103F425
:1028EC000033B3F5003F01D1012300E0002318466B
:1028FC00BD465DF8047B704780B400AF4FF0B04329
:10290C00D3F8083103F48033B3F5803F01D10123B0
:10291C0000E000231846BD465DF8047B704780B488
:10292C0000AF4FF0B0439B6803F40033B3F5003FA6
:10293C0001D1012300E000231846BD465DF8047B5D
:10294C00704780B400AF4FF0B0439B6803F4802312
:10295C00B3F5802F01D1012300E000231846BD46BA
:10296C005DF8047B7047000090B58DB000AF7860C7
:10297C007B68002B01D101237EE37B681B6803F08D
:10298C002003002B00F09280FFF7A1FEF862FFF706
:10299C0082FFB862FB6A002B05D0FB6A0C2B4CD172
:1029AC00BB6A012B49D1FFF72FFE0346002B05D044
:1029BC007B68DB69002B01D101235DE37B685C6ADA
:1029CC00FFF747FE03469C4214D97B685B6A1846A6
:1029DC0000F016FD0346002B01D001234CE37B686D
:1029EC005B6A1846FFF721FE7B681B6A1846FFF7E7
:1029FC0045FE13E07B685B6A1846FFF716FE7B68A2
:102A0C001B6A1846FFF73AFE7B685B6A184600F0B3
:102A1C00F7FC0346002B01D001232DE300F0DCFC76
:102A2C000346B34A1360B34B1B681846FEF7EEFF20
:102A3C000346002B39D001231EE37B68DB69002B96
:102A4C001ED0FFF7C3FDFFF72FF8786208E0FFF701
:102A5C002BF802467B6AD31A022B01D903230BE312
:102A6C00FFF7D2FD0346002BF1D07B685B6A18465A
:102A7C00FFF7DBFD7B681B6A1846FFF7FFFD15E0CF
:102A8C00FFF7B3FDFFF710F8786208E0FFF70CF8DA
:102A9C0002467B6AD31A022B01D90323ECE2FFF71F
:102AAC00B3FD0346002BF1D100E000BF7B681B682F
:102ABC0003F00103002B4ED0FFF709FE3862FFF73D
:102ACC00EAFEF8613B6A082B05D03B6A0C2B0DD152
:102ADC00FB69032B0AD1FFF719FC0346002B39D0F5
:102AEC007B685B68002B35D10123C5E27B685B6892
:102AFC00B3F5803F02D1FFF7EBFB01E0FFF7F7FBEB
:102B0C007B685B68002B12D0FEF7CEFF786208E082
:102B1C00FEF7CAFF02467B6AD31A642B01D9032342
:102B2C00AAE2FFF7F3FB0346002BF1D013E0FEF70C
:102B3C00BBFF786208E0FEF7B7FF02467B6AD31A48
:102B4C00642B01D9032397E2FFF7E0FB0346002B2C
:102B5C00F1D100E000BF7B681B6803F00203002B7F
:102B6C0051D0FFF7B4FDB861FFF795FE7861BB69F2
:102B7C00042B05D0BB690C2B13D17B69022B10D114
:102B8C00FFF7F4FB0346002B05D07B68DB68002BBA
:102B9C0001D1012370E27B681B691846FFF7F8FB33
:102BAC0031E07B68DB68002B19D0FFF7C1FBFEF727
:102BBC007BFF786208E0FEF777FF02467B6AD31A48
:102BCC00022B01D9032357E2FFF7D0FB0346002B5E
:102BDC00F1D07B681B691846FFF7DAFB13E0FFF7AF
:102BEC00B6FBFEF761FF786208E0FEF75DFF024678
:102BFC007B6AD31A022B01D903233DE2FFF7B6FB04
:102C0C000346002BF1D17B681B6803F00803002BF3
:102C1C0006D17B681B6803F01003002B00F0A38027
:102C2C007B685B69002B76D07B681B6803F0100314
:102C3C00002B46D0FFF76DFC0346002B13D1FFF79A
:102C4C0046FCFEF731FF786208E0FEF72DFF0246E6
:102C5C007B6AD31A022B01D903230DE2FFF759FC2F
:102C6C000346002BF1D0FFF766FCFEF71DFF7862E0
:102C7C0008E0FEF719FF02467B6AD31A032B01D931
:102C8C000323F9E1FFF779FC0346002BF1D07B68B5
:102C9C009B691846FFF783FCFFF72AFCFEF704FF3D
:102CAC00786208E0FEF700FF02467B6AD31A022B1B
:102CBC0001D90323E0E1FFF72CFC0346002BF1D1F3
:102CCC0051E0FFF704FCFEF7EFFE786208E0FEF738
:102CDC00EBFE02467B6AD31A022B01D90323CBE10C
:102CEC00FFF717FC0346002BF1D0FFF735FC0CE087
:102CFC000400002008000020FEF7D6FE02467B6A86
:102D0C00D31A032B01D90323B6E1FFF736FC034694
:102D1C00002BF1D127E0FFF71FFCFEF7C5FE786210
:102D2C0008E0FEF7C1FE02467B6AD31A032B01D9D9
:102D3C000323A1E1FFF721FC0346002BF1D1FFF7A0
:102D4C00D7FBFEF7B1FE786208E0FEF7ADFE024657
:102D5C007B6AD31A022B01D903238DE1FFF7D9FB30
:102D6C000346002BF1D17B681B6803F00403002B96
:102D7C005BD0B54B1B6803F48073002B14D1FFF7A9
:102D8C0077FAFEF791FE786208E0FEF78DFE0246B8
:102D9C007B6AD31A022B01D903236DE1AA4B1B6862
:102DAC0003F48073002BF0D07B689B68012B02D15D
:102DBC00FFF737FB0CE07B689B68052B04D1FFF712
:102DCC0052FBFFF72EFB03E0FFF73CFBFFF75CFB2E
:102DDC007B689B68002B14D0FEF766FE78620AE0D5
:102DEC00FEF762FE02467B6AD31A41F288329342A6
:102DFC0001D9032340E1FFF758FB0346002BEFD02A
:102E0C0013E0FEF751FE78620AE0FEF74DFE024633
:102E1C007B6AD31A41F28832934201D903232BE106
:102E2C00FFF743FB0346002BEFD17B681B6803F0D5
:102E3C004003002B2CD07B689B6A002B14D0FFF72F
:102E4C00BCFAFEF731FE786208E0FEF72DFE024672
:102E5C007B6AD31A022B01D903230DE1FFF7CFFABA
:102E6C000346002BF1D013E0FFF7B8FAFEF71CFE77
:102E7C00786208E0FEF718FE02467B6AD31A022B32
:102E8C0001D90323F8E0FFF7BAFA0346002BF1D17E
:102E9C007B68DB6A002B00F0EE80FFF718FC3861D2
:102EAC004FF0B043DB68FB607B68DB6A022B40F0C1
:102EBC00AF80FB6803F003027B681B6B9A4223D143
:102ECC00FB6803F070027B685B6B9A421CD1FB6859
:102EDC001B0A03F07F027B689B6B9A4214D1FB6840
:102EEC0003F478127B68DB6B9A420DD1FB6803F01C
:102EFC0060627B681B6C9A4206D1FB6803F06042EF
:102F0C007B685B6C9A425DD03B690C2B58D04FF0C0
:102F1C00B0431B6803F08063002B01D00123ABE0AE
:102F2C00FFF773FCFEF7C0FD786208E0FEF7BCFD0E
:102F3C0002467B6AD31A022B01D903239CE04FF083
:102F4C00B0431B6803F00073002BEFD14FF0B0437C
:102F5C00DA683E4B13407A68116B7A68526B1143F6
:102F6C007A68926B120211437A68D26B11437A68B9
:102F7C00126C11437A68526C0A434FF0B041134300
:102F8C00CB60FFF733FC4FF0B043DB684FF0B0423F
:102F9C0043F08053D360FEF787FD786208E0FEF7BC
:102FAC0083FD02467B6AD31A022B01D9032363E00B
:102FBC004FF0B0431B6803F00073002BEFD05AE0C6
:102FCC00012359E04FF0B0431B6803F00073002B52
:102FDC0051D1FFF70BFC4FF0B043DB684FF0B04220
:102FEC0043F08053D360FEF75FFD786208E0FEF794
:102FFC005BFD02467B6AD31A022B01D903233BE00B
:10300C004FF0B0431B6803F00073002BEFD032E09D
:10301C003B690C2B2DD0FFF7F8FB4FF0B043DB686E
:10302C004FF0B04223F00303D3604FF0B043DB68A2
:10303C004FF0B04223F0885323F48033D360FEF773
:10304C0033FD78620DE000BF000400588C80C11184
:10305C00FEF72AFD02467B6AD31A022B01D9032301
:10306C000AE04FF0B0431B6803F00073002BEFD164
:10307C0001E0012300E0002318463437BD4690BD23
:10308C0080B584B000AF786039607B68002B01D1CB
:10309C0001232DE1984B1B6803F007033A689A4211
:1030AC001BD9954B1B6823F0070293493B681343CC
:1030BC000B60FEF7F9FCF86008E0FEF7F5FC024641
:1030CC00FB68D31A022B01D9032311E18A4B1B682D
:1030DC0003F007033A689A42EFD17B681B6803F050
:1030EC000203002B16D07B689B681846FFF7FBFA8F
:1030FC00FEF7DAFCF86008E0FEF7D6FC0246FB6847
:10310C00D31A022B01D90323F2E0FFF7D0FB0346BD
:10311C00002BF1D07B681B6803F02003002B16D02A
:10312C007B685B691846FFF7F2FAFEF7BDFCF860A6
:10313C0008E0FEF7B9FC0246FB68D31A022B01D952
:10314C000323D5E0FFF7C5FB0346002BF1D07B68CA
:10315C001B6803F04003002B16D07B689B69184654
:10316C00FFF7EBFAFEF7A0FCF86008E0FEF79CFC1A
:10317C000246FB68D31A022B01D90323B8E0FFF7F0
:10318C00BBFB0346002BF1D07B681B6803F00403E8
:10319C00002B16D07B68DB681846FFF7E5FAFEF7C4
:1031AC0083FCF86008E0FEF77FFC0246FB68D31A4C
:1031BC00022B01D903239BE0FFF7B1FB0346002B45
:1031CC00F1D07B681B6803F00803002B17D07B68D9
:1031DC001B69DB001846FFF7DBFAFEF765FCF860AD
:1031EC0008E0FEF761FC0246FB68D31A022B01D9FA
:1031FC0003237DE0FFF7A5FB0346002BF1D07B6892
:10320C001B6803F00103002B43D07B685B68022B27
:10321C0006D1FFF77BF80346002B1ED1012367E094
:10322C007B685B68032B06D1FFF7FEFA0346002B85
:10323C0013D101235CE07B685B68002B06D1FFF7A0
:10324C00E3F90346002B08D1012351E0FFF78EF878
:10325C000346002B01D101234AE07B685B681846CA
:10326C00FFF721FAFEF720FCF8600AE0FEF71CFCE1
:10327C000246FB68D31A41F28832934201D90323E8
:10328C0036E0FFF724FA02467B685B689B009A42A3
:10329C00ECD1194B1B6803F007033A689A421BD216
:1032AC00154B1B6823F0070213493B6813430B6053
:1032BC00FEF7FAFBF86008E0FEF7F6FB0246FB6847
:1032CC00D31A022B01D9032312E00B4B1B6803F01A
:1032DC0007033A689A42EFD100F07EF80346074A9A
:1032EC001360FEF7EDFB03461846FEF78FFB034613
:1032FC0018461037BD4680BD004000580400002021
:10330C0090B585B000AFFFF7E2F978607B68002BD1
:10331C000AD1FFF79EF903461B0903F00F032B4A52
:10332C0052F82330FB604BE07B68042B02D1284B16
:10333C00FB6045E07B68082B0AD1FEF7B7FF03461C
:10334C00012B02D1224BFB603AE0224BFB6037E0B1
:10335C00FFF7A1FA38603B68022B03D03B68032BC4
:10336C0003D00DE01A4BBB6015E0FEF79FFF034640
:10337C00012B02D1164BBB600DE0164BBB600AE073
:10338C00FFF767F903461B0903F00F030F4A52F8C6
:10339C002330BB6000BFFFF759FA0246BB6803FB42
:1033AC0002F4FFF76CFA03461B090133B4FBF3F488
:1033BC00FFF759FA03465B0F0133B4FBF3F3FB60E1
:1033CC00FB6818461437BD4690BD00BF8C7D0008C5
:1033DC000024F4000048E80198B500AFFFF790FF17
:1033EC000446FFF7E9F903461B0903F00F03034AF0
:1033FC0052F82330B4FBF3F3184698BD4C7D00080B
:10340C0090B585B000AF78607B68B02B03D9154BB5
:10341C00DB6AFB6007E07B681B0903F00F03114AB2
:10342C0052F82330FB60FFF7D3F903461B0903F076
:10343C000F030D4A52F82330FA68B2FBF3F3BB606A
:10344C00BB680A4AA2FB03239C0CFEF721FF034630
:10345C001946204600F00CF8034618461437BD46B2
:10346C0090BD00BF8C7D00084C7D000883DE1B43A3
:10347C0090B593B000AF78603960394B07F12804F0
:10348C000FCB84E80F00374A07F11C0307CA83E807
:10349C000700354B07F10C040FCB84E80F00002319
:1034AC007B643B68B3F5007F1CD100233B6415E0C3
:1034BC003B6C9B0007F14802134453F8203C7A689C
:1034CC009A4208D83B6C9B0007F14802134453F80E
:1034DC003C3C7B6422E03B6C01333B643B6C032B38
:1034EC00E6D91BE00023FB6315E0FB6B9B0007F1A7
:1034FC004802134453F82C3C7A689A4208D8FB6B68
:10350C009B0007F14802134453F83C3C7B6405E0F4
:10351C00FB6B0133FB63FB6B022BE6D9134B1B6874
:10352C0023F0070211497B6C13430B60FEF7BCFAC6
:10353C00B86308E0FEF7B8FA0246BB6BD31A022B4D
:10354C0001D9032307E0094B1B6803F007037A6CCE
:10355C009A42EFD1002318464C37BD4690BD00BFB0
:10356C009C7B0008AC7B0008B87B0008004000582E
:10357C0080B400AF4FF0B043D3F8903003F00103A8
:10358C00012B01D1012300E000231846BD465DF854
:10359C00047B704780B400AF4FF0B043D3F8903049
:1035AC0003F00203022B01D1012300E00023184693
:1035BC00BD465DF8047B704780B483B000AF786083
:1035CC004FF0B043D3F8943023F440424FF0B04165
:1035DC007B681343C1F8943000BF0C37BD465DF8CF
:1035EC00047B704780B483B000AF78604FF0B04379
:1035FC005B6A23F003024FF0B0417B6813434B62CC
:10360C0000BF0C37BD465DF8047B704780B483B0B7
:10361C0000AF78604FF0B0435B6A23F030024FF09C
:10362C00B0417B6813434B6200BF0C37BD465DF85D
:10363C00047B704780B483B000AF78604FF0B04328
:10364C00D3F8883023F003024FF0B0417B6813436A
:10365C00C1F8883000BF0C37BD465DF8047B70475D
:10366C0080B483B000AF78604FF0B043D3F88830AB
:10367C0023F440624FF0B0417B681343C1F88830AB
:10368C0000BF0C37BD465DF8047B704780B483B037
:10369C0000AF78604FF0B043D3F888207B681B09EB
:1036AC0003F47F23DB431A407B681B0103F47F2365
:1036BC004FF0B0411343C1F8883000BF0C37BD4602
:1036CC005DF8047B704780B483B000AF78604FF036
:1036DC00B043D3F888207B681B0C1B04DB431A40D7
:1036EC007B681B044FF0B0411343C1F8883000BF16
:1036FC000C37BD465DF8047B704780B483B000AFD7
:10370C0078604FF0B043D3F8883023F440024FF088
:10371C00B0417B681343C1F8883000BF0C37BD46FD
:10372C005DF8047B704780B483B000AF78604FF0D5
:10373C00B043D3F8883023F040424FF0B0417B685F
:10374C001343C1F8883000BF0C37BD465DF8047BCD
:10375C00704780B483B000AF78604FF0B043D3F8BB
:10376C00883023F040624FF0B0417B681343C1F8BE
:10377C00883000BF0C37BD465DF8047B704780B5C0
:10378C0082B000AF78607868FFF7E3FF00BF0837BE
:10379C00BD4680BD80B483B000AF78604FF0B043BD
:1037AC00D3F8883023F040524FF0B0417B6813437C
:1037BC00C1F8883000BF0C37BD465DF8047B7047FC
:1037CC0080B483B000AF78604FF0B043D3F8903042
:1037DC0023F440724FF0B0417B681343C1F8903032
:1037EC0000BF0C37BD465DF8047B704780B400AF5A
:1037FC004FF0B043D3F8903003F440731846BD46F5
:10380C005DF8047B704780B400AF4FF0B043D3F841
:10381C0090304FF0B04243F48033C2F8903000BF88
:10382C00BD465DF8047B704780B400AF4FF0B043E9
:10383C00D3F890304FF0B04223F48033C2F890307C
:10384C0000BFBD465DF8047B704780B400AF4FF0FD
:10385C00B0431B684FF0B04243F08063136000BF6D
:10386C00BD465DF8047B704780B400AF4FF0B043A9
:10387C001B684FF0B04223F08063136000BFBD465D
:10388C005DF8047B704780B400AF4FF0B0431B6809
:10389C0003F00063B3F1006F01D1012300E00023BA
:1038AC001846BD465DF8047B704780B588B000AF04
:1038BC0078600023FB770023BB777B681B6803F0E1
:1038CC004003002B34D07B681B6BB3F5400F21D029
:1038DC00B3F5400F1BD8B3F5000F1DD0B3F5000F97
:1038EC0015D8002B0BD0B3F5800F10D14FF0B0438F
:1038FC00DB684FF0B04243F48033D3600DE07B685B
:10390C000433184600F047F90346FB7705E0012322
:10391C00FB7702E000BF00E000BFFB7F002B05D16E
:10392C007B681B6B1846FFF7E8FE01E0FB7FBB775B
:10393C007B681B6803F40063002B46D0FFF756FF2F
:10394C00B8617B681B6CBA699A423CD0FEF790FC5C
:10395C00BB69002B05D17B681B6C1846FFF730FF49
:10396C002EE04FF0B043D3F890307B61FFF74BFF64
:10397C00FFF75AFF7B6923F440727B681B6C13437F
:10398C007B614FF0B0427B69C2F89030FFF7F0FDDD
:10399C000346012B14D1FEF787F838610BE0FEF7D4
:1039AC0083F802463B69D31A41F28832934202D91A
:1039BC000323FB7704E0FFF7EDFD0346012BEED16B
:1039CC00FB7FBB7701E0FB7FBB777B681B6803F059
:1039DC000103002B04D07B689B691846FFF72AFE75
:1039EC007B681B6803F00203002B04D07B68DB6947
:1039FC001846FFF735FE7B681B6803F01003002B9D
:103A0C0004D07B689B6A1846FFF75DFE7B681B68D9
:103A1C0003F02003002B04D07B68DB6A1846FFF709
:103A2C0052FE7B681B6803F00403002B04D07B68F8
:103A3C001B6A1846FFF72AFE7B681B6803F0080315
:103A4C00002B04D07B685B6A1846FFF71FFE7B686F
:103A5C001B6803F48073002B22D07B685B6B1846C9
:103A6C00FFF78DFE7B685B6BB3F1006F07D14FF0F6
:103A7C00B043DB684FF0B04243F08073D3607B6897
:103A8C005B6BB3F1806F0BD17B680433184600F08D
:103A9C00DDF80346FB77FB7F002B01D0FB7FBB7768
:103AAC007B681B6803F40073002B2BD07B689B6B2B
:103ABC00B3F1804F08D07B689B6BB3F1004F03D000
:103ACC007B689B6B002B05D17B689B6B1846FFF7C3
:103ADC002AFE0AE07B689B6B23F08053FB6000207E
:103AEC00FFF721FEF868FFF734FE7B689B6BB3F1A0
:103AFC00C05F07D14FF0B043DB684FF0B04243F0EA
:103B0C008073D3607B681B6803F48063002B22D026
:103B1C007B68DB6B1846FFF73DFE7B68DB6BB3F114
:103B2C00005F07D14FF0B043DB684FF0B04243F475
:103B3C008033D3607B68DB6BB3F1805F0BD17B6828
:103B4C000433184600F0DDF80346FB77FB7F002BAF
:103B5C0001D0FB7FBB777B681B6803F48053002B81
:103B6C0004D07B685B6C1846FFF726FD7B681B68EE
:103B7C0003F40053002B09D07B68DB6C1846FFF76D
:103B8C0045FD7B689B6C1846FFF72CFDBB7F1846E8
:103B9C002037BD4680BD80B584B000AF786000236F
:103BAC00FB73FFF761FEFDF77FFFB86009E0FDF7DF
:103BBC007BFF0246BB68D31A022B02D90323FB738B
:103BCC0004E0FFF760FE0346002BF0D1FB7B002BDB
:103BDC0037D14FF0B0431B6923F4FE427B681B685E
:103BEC001B024FF0B04113430B614FF0B0431B6904
:103BFC0023F478127B685B684FF0B04113430B6180
:103C0C00FFF723FEFDF750FFB86009E0FDF74CFF0E
:103C1C000246BB68D31A022B02D90323FB7304E0C0
:103C2C00FFF731FE0346012BF0D1FB7B002B08D1B3
:103C3C004FF0B0431A697B681B694FF0B0411343D6
:103C4C000B61FB7B18461037BD4680BD80B584B038
:103C5C0000AF78600023FB73FFF706FEFDF724FF2F
:103C6C00B86009E0FDF720FF0246BB68D31A022BAF
:103C7C0002D90323FB7304E0FFF705FE0346002B78
:103C8C00F0D1FB7B002B37D14FF0B0431B6923F4F1
:103C9C00FE427B681B681B024FF0B04113430B6163
:103CAC004FF0B0431B6923F060627B689B684FF058
:103CBC00B04113430B61FFF7C8FDFDF7F5FEB8608B
:103CCC0009E0FDF7F1FE0246BB68D31A022B02D9BC
:103CDC000323FB7304E0FFF7D6FD0346012BF0D161
:103CEC00FB7B002B08D14FF0B0431A697B681B6932
:103CFC004FF0B04113430B61FB7B18461037BD46A8
:103D0C0080BD80B584B000AF78600023FB73FFF7F3
:103D1C00ABFDFDF7C9FEB86009E0FDF7C5FE024634
:103D2C00BB68D31A022B02D90323FB7304E0FFF701
:103D3C00AAFD0346002BF0D1FB7B002B37D14FF0B3
:103D4C00B0431B6923F4FE427B681B681B024FF0D7
:103D5C00B04113430B614FF0B0431B6923F0604239
:103D6C007B68DB684FF0B04113430B61FFF76DFDCF
:103D7C00FDF79AFEB86009E0FDF796FE0246BB68B7
:103D8C00D31A022B02D90323FB7304E0FFF77BFD4C
:103D9C000346012BF0D1FB7B002B08D14FF0B04335
:103DAC001A697B681B694FF0B04113430B61FB7BB5
:103DBC0018461037BD4680BD80B582B000AF786024
:103DCC007B68002B01D1012390E07B6893F82130B4
:103DDC00DBB2002B06D17B68002283F820207868A8
:103DEC00FDF7F4FC7B68022283F821207B681B68BA
:103DFC00CA225A627B681B6853225A62786800F0A8
:103E0C009FF80346002B09D07B681B68FF225A627F
:103E1C007B68042283F82120012367E07B681B6800
:103E2C009B687A68126823F4E00323F040039360E4
:103E3C007B681B6899687B685A687B681B691A43A6
:103E4C007B689B691A437B681B680A439A607B6892
:103E5C001B687A68D2681A617B681B6819697B6871
:103E6C009B681A047B681B680A431A617B681B6891
:103E7C00DA687B681B6822F08002DA607B681B685A
:103E8C00DA6C7B681B6822F00302DA647B681B68BF
:103E9C00D96C7B68DA697B685B691A437B681B6841
:103EAC000A43DA647B681B689B6803F02003002BD1
:103EBC0013D1786800F01EF80346002B0DD07B68F8
:103ECC001B68FF225A627B68042283F821207B68DE
:103EDC00002283F82020012308E07B681B68FF2266
:103EEC005A627B68012283F8212000231846083788
:103EFC00BD4680BD80B584B000AF78607B681B6820
:103F0C00DA687B681B6822F0A002DA60FDF7CCFD52
:103F1C00F86009E0FDF7C8FD0246FB68D31AB3F55B
:103F2C007A7F01D9032307E07B681B68DB6803F009
:103F3C002003002BEED0002318461037BD4680BD61
:103F4C0080B584B000AF78607B681B68DB6803F0D9
:103F5C004003002B19D17B681B684FF0FF32DA60ED
:103F6C00FDF7A2FDF86009E0FDF79EFD0246FB6837
:103F7C00D31AB3F57A7F01D9032307E07B681B685A
:103F8C00DB6803F04003002BEED0002318461037FB
:103F9C00BD4680BD80B586B000AFF860B9607A6070
:103FAC00FB6893F82030012B01D10223A8E0FB68B9
:103FBC00012283F82020FB68022283F82120FB6871
:103FCC001B68CA225A62FB681B6853225A62FB6840
:103FDC001B689B6803F48063002B20D0FDF764FD05
:103FEC00786115E0FDF760FD02467B69D31AB3F5E5
:103FFC007A7F0DD9FB681B68FF225A62FB6803228B
:10400C0083F82120FB68002283F82020032377E02B
:10401C00FB681B68DB6803F00403002BE2D1FB6830
:10402C001B689A68FB681B6822F480629A60FB68C4
:10403C001B68DB68DAB2FB681B6862F49062DA60BA
:10404C00FDF732FD786115E0FDF72EFD02467B6928
:10405C00D31AB3F57A7F0DD9FB681B68FF225A621D
:10406C00FB68032283F82120FB68002283F82020C0
:10407C00032345E0FB681B68DB6803F00403002B9B
:10408C00E2D0FB681B68BA685A61FB681B689A68C7
:10409C00FB681B6822F007029A60FB681B68996832
:1040AC00FB681B687A680A439A60174BD3F8803018
:1040BC00154A43F40023C2F88030134B1B68124A94
:1040CC0043F400231360FB681B689A68FB681B6849
:1040DC0042F480429A60FB681B689A68FB681B6814
:1040EC0042F480629A60FB681B68FF225A62FB688C
:1040FC00012283F82120FB68002283F82020002372
:10410C0018461837BD4680BD0008005880B588B0E9
:10411C0000AF0023FB7107F1080318220021184699
:10412C0001F02EF83F233B8181237B81FB1DBB617A
:10413C000123FB6107F108030021184601F0AAFADC
:10414C000346002B01DAFF2300E0FB7918462037E9
:10415C00BD4680BDB0B5CEB000AF05460C4610468E
:10416C001946FB1D2A461A703B1D22461A80BB1CA1
:10417C0002461A80BB1D0A461A7007F11003C7F8D5
:10418C00343197F84C31083307F110021344C7F857
:10419C00303197F84C2197F854311344093307F117
:1041AC0010021344C7F82C3107F10F0300221A70C8
:1041BC000023C7F82831D7F83431FA1D12781A7059
:1041CC00D7F828310133C7F82831D7F834313A1DE4
:1041DC001288A3F80120D7F828310233C7F8283108
:1041EC00D7F83431BA1C1288A3F80320D7F8283139
:1041FC000233C7F82831D7F83431BA1D12785A7106
:10420C00D7F828310133C7F82831D7F8343197F86B
:10421C0048219A71D7F828310133C7F82831D7F8DB
:10422C00343197F84C21DA71D7F828310133C7F8BB
:10423C002831D7F83431083397F84C21D7F850117E
:10424C00184600F08DFF97F84C31D7F8282113440D
:10425C00C7F82831D7F8303197F854211A70D7F8AD
:10426C0028310133C7F82831D7F83031013397F8AA
:10427C005421D7F85811184600F072FF97F85431B2
:10428C00D7F828211344C7F82831D7F82C31B7F8C0
:10429C005C211A80D7F828310233C7F82831D7F8B7
:1042AC002C31B7F860215A80D7F828310233C7F87F
:1042BC00283107F5887318220021184600F060FF9A
:1042CC003F23A7F810318323A7F8123107F110030D
:1042DC00C7F81831D7F82831C7F81C3107F10F038C
:1042EC00C7F820310123C7F8243107F58873002162
:1042FC00184601F0CFF90346002B01DAFF2302E048
:10430C0007F10F031B78184607F59C77BD46B0BD27
:10431C0080B5CCB000AF0246FB1D1A7007F110033C
:10432C00C7F82C3107F10F0300221A700023C7F8CD
:10433C002831D7F82C31FA1D12781A70D7F8283199
:10434C000133C7F8283107F5887318220021184665
:10435C0000F016FF3F23A7F810318523A7F8123180
:10436C0007F11003C7F81831D7F82831C7F81C31FA
:10437C0007F10F03C7F820310123C7F8243107F5E3
:10438C0088730021184601F085F90346002B01DAE9
:10439C00FF2302E007F10F031B78184607F5987707
:1043AC00BD4680BDB0B5CCB000AF05460C4610463E
:1043BC001946FB1D2A461A70BB1D22461A707B1D1E
:1043CC0002461A703B1D0A461A7007F11003C7F813
:1043DC002C3107F10F0300221A700023C7F8283183
:1043EC00D7F82C31FA1D12781A70D7F8283101330E
:1043FC00C7F82831D7F82C31BA1D12785A70D7F873
:10440C0028310133C7F82831D7F82C317A1D1278AE
:10441C009A70D7F828310133C7F82831D7F82C31E6
:10442C003A1D1278DA70D7F828310133C7F82831E1
:10443C00D7F82C3197F840211A71D7F8283101336D
:10444C00C7F82831D7F82C3197F844215A71D7F88E
:10445C0028310133C7F82831D7F82C3197F8482187
:10446C009A71D7F828310133C7F82831D7F82C3195
:10447C00D7F84C21C3F80720D7F828310433C7F8F4
:10448C002831D7F82C3197F85021DA72D7F8283127
:10449C000133C7F8283107F5887318220021184614
:1044AC0000F06EFE3F23A7F810318623A7F81231D7
:1044BC0007F11003C7F81831D7F82831C7F81C31A9
:1044CC0007F10F03C7F820310123C7F8243107F592
:1044DC0088730021184601F0DDF80346002B01DA41
:1044EC00FF2302E007F10F031B78184607F59877B6
:1044FC00BD46B0BD80B5CCB000AF02463B4619609E
:10450C00BB1D1A8007F11003C7F82C3107F10F03FC
:10451C0000221A700023C7F82831D7F82C31BA1DA5
:10452C0012881A80D7F828310233C7F82831D7F807
:10453C002C313A461268C3F80220D7F828310433DC
:10454C00C7F8283107F5887318220021184600F0A7
:10455C0017FE3F23A7F810318823A7F8123107F173
:10456C001003C7F81831D7F82831C7F81C3107F1F8
:10457C000F03C7F820310123C7F8243107F58873DE
:10458C000021184601F086F80346002B01DAFF23C0
:10459C0002E007F10F031B78184607F59877BD4624
:1045AC0080BD90B5CDB000AF0446084611463A46E2
:1045BC001360FB1D22461A70BB1D02461A707B1D30
:1045CC000A461A7007F11003C7F82C3107F10803DB
:1045DC0007220021184600F0D3FD0023C7F828312C
:1045EC00D7F82C31FA1D12781A70D7F8283101330C
:1045FC00C7F82831D7F82C31BA1D12785A70D7F871
:10460C0028310133C7F82831D7F82C317A1D1278AC
:10461C009A70D7F828310133C7F8283107F5887319
:10462C0018220021184600F0ABFD3F23A7F81031EB
:10463C008A23A7F8123107F11003C7F81831D7F8FD
:10464C002831C7F81C3107F10803C7F820310723BC
:10465C00C7F8243107F588730021184601F01AF8C1
:10466C000346002B01DAFF2321E007F108031B7836
:10467C00002B03D007F108031B7818E007F108039F
:10468C00B3F801309AB23B461B681A8007F1080355
:10469C00B3F803309AB2D7F840311A8007F1080307
:1046AC00B3F805309AB2D7F844311A800023184673
:1046BC0007F59A77BD4690BD80B5CCB000AF0246E9
:1046CC003B461960FB1D1A7007F11003C7F82C311B
:1046DC0007F10F0300221A700023C7F82831D7F80E
:1046EC002C31FA1D12781A70D7F828310133C7F81B
:1046FC002831D7F82C31581CFB1D1A783B46196809
:10470C0000F02EFDFB1D1B78D7F828211344C7F8A9
:10471C00283107F5887318220021184600F030FD67
:10472C003F23A7F810318E23A7F8123107F110039D
:10473C00C7F81831D7F82831C7F81C3107F10F0327
:10474C00C7F820310123C7F8243107F588730021FD
:10475C00184600F09FFF0346002B01DAFF2302E00E
:10476C0007F10F031B78184607F59877BD4680BDF7
:10477C0080B5CCB000AF0246FB1D1A7007F11003D8
:10478C00C7F82C3107F10F0300221A700023C7F869
:10479C002831D7F82C31FA1D12781A70D7F8283135
:1047AC000133C7F8283107F5887318220021184601
:1047BC0000F0E6FC3F23A7F810318F23A7F8123145
:1047CC0007F11003C7F81831D7F82831C7F81C3196
:1047DC0007F10F03C7F820310123C7F8243107F57F
:1047EC0088730021184600F055FF0346002B01DAB0
:1047FC00FF2302E007F10F031B78184607F59877A3
:10480C00BD4680BD80B588B000AF0023FB7107F1B9
:10481C00080318220021184600F0B2FC3F233B810C
:10482C0092237B81FB1DBB610123FB6107F1080314
:10483C000021184600F02EFF0346002B01DAFF235F
:10484C0000E0FB7918462037BD4680BD80B5CCB062
:10485C0000AF0246BB1D1A807B1D0A461A7007F179
:10486C001003C7F82C3107F10F0300221A70002334
:10487C00C7F82831D7F82C31BA1D12881A80D7F80E
:10488C0028310233C7F82831D7F82C317A1D127829
:10489C009A70D7F828310133C7F8283107F5887397
:1048AC0018220021184600F06BFC3F23A7F81031AA
:1048BC00A523A7F8123107F11003C7F81831D7F860
:1048CC002831C7F81C3107F10F03C7F82031012339
:1048DC00C7F8243107F588730021184600F0DAFE7A
:1048EC000346002B01DAFF2302E007F10F031B78CC
:1048FC00184607F59877BD4680BD80B588B000AFE7
:10490C000023FB7107F1080318220021184600F060
:10491C0037FC3F233B8140F201137B81FB1DBB61C4
:10492C000123FB6107F108030021184600F0B2FED9
:10493C000346002B01DAFF2300E0FB7918462037F1
:10494C00BD4680BD90B5CFB000AF0446384601607F
:10495C0010461946FB1D22461A70BB1D02461A70E2
:10496C007B1D0A461A7007F11003C7F83031FB1D86
:10497C001B78012B07D0FB1D1B78022B01D11123B7
:10498C0002E0012300E0032307F110021344C7F8EF
:10499C002C3107F10C0303220021184600F0F0FB28
:1049AC000023C7F82831D7F83031FA1D12781A7065
:1049BC00D7F828310133C7F82831FB1D1B78012BA0
:1049CC0002D0022B04D007E0022387F8373105E030
:1049DC00102387F8373101E097235DE0D7F83031A9
:1049EC00581C97F837213B46196800F0B9FB97F82B
:1049FC003731D7F828211344C7F82831D7F82C3190
:104A0C00BA1D12781A70D7F828310133C7F828313B
:104A1C00D7F82C317A1D12785A70D7F82831013317
:104A2C00C7F8283107F5887318220021184600F0C2
:104A3C00A7FB3F23A7F810314FF48173A7F812316D
:104A4C0007F11003C7F81831D7F82831C7F81C3113
:104A5C0007F10C03C7F820310323C7F8243107F5FD
:104A6C0088730021184600F015FE0346002B01DA6E
:104A7C00FF2311E007F10C031B78002B03D007F187
:104A8C000C031B7808E007F10C03B3F801309AB261
:104A9C00D7F848311A800023184607F59E77BD4693
:104AAC0090BD90B5D1B000AF0446084607F108019F
:104ABC000A60194607F10E0322461A8007F10D030E
:104ACC0002461A70BB1D0A461A8007F11803C7F874
:104ADC00383107F10D031B78012B08D007F10D03BA
:104AEC001B78022B01D1132302E0032300E00523E2
:104AFC0007F118021344C7F8343107F114030322E9
:104B0C000021184600F03CFB0023C7F83031D7F8E1
:104B1C00383107F10E0212881A80D7F8303102337F
:104B2C00C7F83031D7F8383107F10D0212789A7086
:104B3C00D7F830310133C7F8303107F10D031B784A
:104B4C00012B02D0022B04D007E0022387F83F315F
:104B5C0005E0102387F83F3101E0972386E0D7F872
:104B6C003831D81C97F83F2107F10803196800F079
:104B7C00F7FA97F83F31D7F830211344C7F83031A2
:104B8C00D7F83431BA1D12881A80D7F83031023375
:104B9C00C7F83031D7F8343197F850219A70D7F8DC
:104BAC0030310133C7F83031D7F8343197F854210C
:104BBC00DA70D7F830310133C7F83031D7F83431E7
:104BCC0097F858211A71D7F830310133C7F83031C2
:104BDC00D7F8343197F85C215A71D7F8303101335A
:104BEC00C7F83031D7F8343197F860219A71D7F87B
:104BFC0030310133C7F8303107F58C73182200219E
:104C0C00184600F0BDFA3F23A7F818314FF4827311
:104C1C00A7F81A3107F11803C7F82031D7F830314B
:104C2C00C7F8243107F11403C7F828310323C7F858
:104C3C002C3107F58C730021184600F02BFD034630
:104C4C00002B01DAFF2311E007F114031B78002B72
:104C5C0003D007F114031B7808E007F11403B3F831
:104C6C0001309AB2D7F864311A800023184607F540
:104C7C00A277BD4690BDB0B5CCB000AF05460C4692
:104C8C0010461946BB1D2A461A803B1D22461A8027
:104C9C00FB1C02461A70BB1C0A461A7007F1100363
:104CAC00C7F82C3107F10F0300221A700023C7F844
:104CBC002831D7F82C31BA1D12881A80D7F8283130
:104CCC000233C7F82831D7F82C313A1D12885A8094
:104CDC00D7F828310233C7F82831D7F82C31FA1C11
:104CEC0012781A71D7F828310133C7F82831D7F860
:104CFC002C31BA1C12785A71D7F828310133C7F805
:104D0C002831D7F82C31981DBB1C1B781A46D7F8C4
:104D1C00401100F025FABB1C1B78D7F8282113444E
:104D2C00C7F8283107F5887318220021184600F0BF
:104D3C0027FA3F23A7F810314FF48373A7F81231E9
:104D4C0007F11003C7F81831D7F82831C7F81C3110
:104D5C0007F10F03C7F820310123C7F8243107F5F9
:104D6C0088730021184600F095FC0346002B01DAED
:104D7C00FF2302E007F10F031B78184607F598771D
:104D8C00BD46B0BD80B5CCB000AF3B461A60FB1D34
:104D9C0002461A70BB1D0A461A7007F11003C7F8B9
:104DAC002C3107F10F0300221A700023C7F82831A9
:104DBC00D7F82C31FA1D12781A70D7F82831013334
:104DCC00C7F82831D7F82C31BA1D12785A70D7F899
:104DDC0028310133C7F82831D7F82C31981CBB1D6A
:104DEC001A783B46196800F0BBF9BB1D1B78D7F845
:104DFC0028211344C7F8283107F58873182200219D
:104E0C00184600F0BDF93F23A7F810310C23A7F882
:104E1C00123107F11003C7F81831D7F82831C7F849
:104E2C001C3107F10F03C7F820310123C7F82431D7
:104E3C0007F588730021184600F02CFC0346002B64
:104E4C0001DAFF2302E007F10F031B78184607F580
:104E5C009877BD4680BD80B5CCB000AF0246FB1D37
:104E6C001A70BB1D0A461A7007F11003C7F82C31D3
:104E7C0007F10F0300221A700023C7F82831D7F866
:104E8C002C31FA1D12781A70D7F828310133C7F873
:104E9C002831D7F82C31BA1D12785A70D7F828312E
:104EAC000133C7F8283107F58873182200211846FA
:104EBC0000F066F93F23A7F810310F23A7F8123141
:104ECC0007F11003C7F81831D7F82831C7F81C318F
:104EDC0007F10F03C7F820310123C7F8243107F578
:104EEC0088730021184600F0D5FB0346002B01DA2D
:104EFC00FF2302E007F10F031B78184607F598779C
:104F0C00BD4680BD80B5CCB000AF0246BB1D1A803B
:104F1C0007F11003C7F82C3107F10F0300221A70A8
:104F2C000023C7F82831D7F82C31BA1D12881A8003
:104F3C00D7F828310233C7F8283107F588731822BF
:104F4C000021184600F01CF93F23A7F81031182354
:104F5C00A7F8123107F11003C7F81831D7F8283128
:104F6C00C7F81C3107F10F03C7F820310123C7F82C
:104F7C00243107F588730021184600F08BFB03469B
:104F8C00002B01DAFF2302E007F10F031B78184610
:104F9C0007F59877BD4680BD80B588B000AF00237B
:104FAC00FB7107F1080318220021184600F0E8F8FD
:104FBC0003233B8103237B81FB1DBB610123FB612D
:104FCC0007F108030021184600F064FB0346002B90
:104FDC0001DAFF2300E0FB7918462037BD4680BD7F
:104FEC0080B5CCB000AF02463B461960FB1D1A7071
:104FFC0007F11003C7F82C3107F10F0300221A70C8
:10500C000023C7F82831D7F82C31FA1D12781A7002
:10501C00D7F828310133C7F82831D7F82C31581C70
:10502C003B461F22196800F09BF8D7F828311F3334
:10503C00C7F8283107F5887318220021184600F0AC
:10504C009FF80823A7F810310923A7F8123107F1AC
:10505C001003C7F81831D7F82831C7F81C3107F1FD
:10506C000F03C7F820310123C7F8243107F58873E3
:10507C000021184600F00EFB0346002B01DAFF233B
:10508C0002E007F10F031B78184607F59877BD4629
:10509C0080BD90B5CDB000AF044608461146FB1D4F
:1050AC0022461A70BB1D02461A707B1D0A461A70E6
:1050BC0007F11003C7F82C3107F10F0300221A7007
:1050CC000023C7F82831D7F82C31FA1D12781A7042
:1050DC00D7F828310133C7F82831D7F82C31BA1D4D
:1050EC0012785A70D7F828310133C7F82831D7F81D
:1050FC002C317A1D12789A70D7F828310133C7F801
:10510C00283107F5887318220021184600F038F86A
:10511C000823A7F810313123A7F8123107F1100337
:10512C00C7F81831D7F82831C7F81C3107F10F032D
:10513C00C7F820310123C7F8243107F58873002103
:10514C00184600F0A7FA0346002B01DAFF2302E011
:10515C0007F10F031B78184607F59A77BD4690BDEB
:10516C0080B584B000AFF860B9607A607A68B968CD
:10517C00F86802F0DDFC034618461037BD4680BDCA
:10518C0080B584B000AFF860B9607A607A68B968AD
:10519C00F86802F0DBFC034618461037BD4680BDAC
:1051AC0080B400AF00BFBD465DF8047B704780B48F
:1051BC0000AF00BFBD465DF8047B704780B400AF04
:1051CC0000BFBD465DF8047B704780B400AF00BFE4
:1051DC00BD465DF8047B704780B400AF00BFBD4690
:1051EC005DF8047B704780B400AF00BFBD465DF82E
:1051FC00047B704780B400AF00BFBD465DF8047BF4
:10520C00704780B400AF00BFBD465DF8047B7047AB
:10521C0080B400AF00BFBD465DF8047B704780B41E
:10522C0000AF00BFBD465DF8047B704780B400AF93
:10523C0000BFBD465DF8047B704780B400AF00BF73
:10524C00BD465DF8047B704780B400AF00BFBD461F
:10525C005DF8047B704780B400AF00BFBD465DF8BD
:10526C00047B704780B400AF00BFBD465DF8047B83
:10527C00704780B400AF00BFBD465DF8047B70473B
:10528C0080B400AF00BFBD465DF8047B70470000E2
:10529C0080B500AF044B00221A77044B00221A7021
:1052AC0000F006F800BF80BDC8000020E800002018
:1052BC0080B500AFFFF774FFFFF779FFFFF77EFFB4
:1052CC00FFF783FFFFF788FFFFF78DFFFFF792FFD4
:1052DC00FFF797FFFFF79CFFFFF7A1FFFFF7A6FF74
:1052EC00FFF7ABFFFFF7B0FFFFF7B5FFFFF7BAFF14
:1052FC00FFF7C6FFFFF7BDFF01F024FD00BF80BD27
:10530C0080B483B000AF7860094B1B7F1946084A04
:10531C007B6842F82130064B1B7F0133DAB2044B19
:10532C001A7700BF0C37BD465DF8047B704700BF91
:10533C00C800002080B586B000AF78607B68013370
:10534C003B610023FB753B691B78FF2B25D13B6927
:10535C000233FB60FB681B889BB203F47F43B3F5FD
:10536C00406F18D100237B750DE07B7D1A4A52F8F3
:10537C002330786898470346FB75FB7D002B08D1DA
:10538C007B7D01337B75144B1B7F7A7D9A42ECD36A
:10539C0002E000BF00E000BF00E000BFFB7D022B7D
:1053AC000FD0022B10DC002B02D0012B06D00BE00F
:1053BC00786800F06FFF0346BB7508E00123BB75EE
:1053CC0005E00023BB7502E00123BB7500BFBB7D6C
:1053DC0018461837BD4680BDC800002080B588B07F
:1053EC0000AF786007F10C03FB617B6803F10C02E2
:1053FC00FB6925214FF6664000F0E2FAFB690B339E
:10540C00DB7818462037BD4680BD80B588B000AF2C
:10541C00786007F10C03FB617B6803F10C02FB69FC
:10542C000F214FF6684000F0CBFAFB690B33DB78A9
:10543C0018462037BD4680BD80B588B000AF786077
:10544C0007F10C03FB61FB697A680E214FF675407E
:10545C0000F0B6FAFB690B33DB7818462037BD46F3
:10546C0080BD000080B48BB000AF786000233B613E
:10547C000023FB6000237B6200233B620023FB6163
:10548C000023BB600023BB6100237B614A4BDB6BB9
:10549C00C3F30D033B613B699B0003F1005303F520
:1054AC0040331B68BB60BB681B68444A93420FD1F6
:1054BC00BB685B697B62BB689B693B62BB68DB69F1
:1054CC00FB61BB68DB68BB61BB681B697B611AE075
:1054DC003B699B0003F1005303F54033FB60FB6811
:1054EC001B681B697B62FB681B685B693B62FB6822
:1054FC001B689B69FB61FB681B685B68BB61FB6895
:10550C001B689B687B617B6A1B0EDAB27B681A7026
:10551C007B6A1B0CDAB27B685A707B6A1B0ADAB2A4
:10552C007B689A707B6A1B09DBB203F00F03DAB25B
:10553C007B68DA707B6ADBB203F00F03DAB27B684C
:10554C001A713B6A1B0EDAB27B685A713B6A1B0CF0
:10555C00DAB27B689A713B6A1B0ADAB27B68DA7141
:10556C003B6ADAB27B681A72FB69DAB27B685A72F0
:10557C00BB691B0EDAB27B689A72BB691B0CDAB280
:10558C007B68DA72BB691B0ADAB27B681A737B69B7
:10559C001B0EDAB27B685A737B691B0CDAB27B6820
:1055AC009A737B69DAB27B68DA73002318462C375E
:1055BC00BD465DF8047B704700400058B95646A9BB
:1055CC0080B582B000AF786039603B685B68084A90
:1055DC001360084A7B68D361064800F073F93B6896
:1055EC001B68184600F0D4F800BF0837BD4680BDD4
:1055FC00F4010020CC01002080B584B000AF22481B
:10560C0000F028FD0346002B2BD1204B1B78002BE0
:10561C0027D007F10C0319461B4800F0AAFD1C4BC0
:10562C00DB69002B0CD0FB68BB6001233B71184B72
:10563C00DB693A1D104698473A79144B1A7002E010
:10564C00124B01221A70114B1B78002B04D0FB68F3
:10565C00184600F003FC04E0FB6819460A4800F009
:10566C001BFD094800F0F6FC0346002B07D1074B45
:10567C001B78002B03D0044801F00AF800BF00BFD0
:10568C001037BD4680BD00BFF0000020FC0000209C
:10569C00CC01002080B588B000AF78600B46FB7061
:1056AC00002000F0CBF80023FB777B685B881BB2F3
:1056BC00C3F309031AB27B681B889B021BB213430A
:1056CC001BB2BB837B68DB68D9B27B689A68BB8BE7
:1056DC00184600F08DF84EE048F2E80000F0EFFFBD
:1056EC0043E007F10C031946284800F042FDFB6823
:1056FC005B7A0F2B14D1FB680B333B613B695B88E6
:10570C009BB2BA8B9A4204D17B681B693A691278B6
:10571C001A703B695B78002B27D00123FB7724E0C0
:10572C00FB680B33BB61BB69B3F801309BB2BA8B1E
:10573C009A4214D1FB689B7A033BFB757B685A69D0
:10574C00FB7D9A42A8BF1A467B685A617B68186930
:10575C00BB69D91C7B685B691A4602F0E9F9BB6925
:10576C001B78002B01D00123FB77084800F072FC5A
:10577C000346002BB5D0FB7F002BADD0012000F0F1
:10578C005DF8002318462037BD4680BDEC01002093
:10579C0080B586B000AF78600F4800F04BFC0F4A24
:1057AC007B6813600E4800F045FC0E4B01221A700A
:1057BC000D4B1B68002B0AD07B683B610B4BBB600D
:1057CC00094B1B6807F108021046984700BF00BF41
:1057DC001837BD4680BD00BFEC010020F80000204A
:1057EC00F0000020FC000020CC01002089580008AB
:1057FC0080B582B000AF03463A60FB800B467B71EC
:10580C000C4B1B68FA88A3F809200A4B1B687A79A1
:10581C00DA72084B1B680C337A793968184602F037
:10582C0087F9054B1B6900210020984700BF0837FA
:10583C00BD4680BDF8000020CC01002080B582B0B0
:10584C0000AF0346FB71FB79002B08D10A4B1B6898
:10585C00002B0DD0084B1B680020984708E0064B26
:10586C001B68002B04D0044B1B680120984700BF19
:10587C0000BF0837BD4680BDF401002080B582B062
:10588C0000AF78607B685B7A0F2B03D07B685B7A08
:10589C000E2B07D17968094800F024FC002000F099
:1058AC0003FF06E07968064800F01CFC044800F091
:1058BC00EFFE00BF0837BD4680BD00BFEC010020E5
:1058CC00F000002080B483B000AF78607B68054A9C
:1058DC001A607B68044A1A6100BF0C37BD465DF83C
:1058EC00047B7047E15B0008495C000880B582B01E
:1058FC0000AF786039603B685B68084A1360084AFF
:10590C007B68D361064800F011F93B681B681846A8
:10591C0000F094F800BF0837BD4680BD1802002087
:10592C00F801002080B584B000AF224800F092FB53
:10593C000346002B2BD1204B1B78002B27D007F1D3
:10594C000C0319461B4800F014FC1C4BDB69002BA4
:10595C000CD0FB68BB6001233B71184BDB693A1D13
:10596C00104698473A79144B1A7002E0124B0122F8
:10597C001A70114B1B78002B04D0FB68184600F0F2
:10598C006DFA04E0FB6819460A4800F085FB0948EB
:10599C0000F060FB0346002B07D1074B1B78002B54
:1059AC0003D00448FAF7F1FE00BF00BF1037BD4624
:1059BC0080BD00BF0C0100201C010020F80100205C
:1059CC0080B584B000AFBA607B600346FB810B46A8
:1059DC007B73002000F064F8164B1B68FA89A3F85F
:1059EC000920144B1B687A7BDA72124B1B680C3340
:1059FC007A7BB968184602F09BF80F4B1B690021A3
:105A0C000020984748F2E800FAF7D6FE7B6803F1CD
:105A1C000800084B1968074B1B689B7803331A4620
:105A2C0002F086F8012000F03BF800BF1037BD46AD
:105A3C0080BD00BF18010020F801002080B586B0A1
:105A4C0000AF7860104A7B681360104800F0F2FADF
:105A5C00012000F025F80E4B01221A700D4B1B682B
:105A6C00002B0CD07B687B610B4BFB600B4B3B61C1
:105A7C00084B1B6807F10C021046984700BF00BF8B
:105A8C001837BD4680BD00BF180100200C01002056
:105A9C001C010020F8010020FD5A0008155B0008CD
:105AAC0080B582B000AF0346FB71FB79002B0BD1A4
:105ABC000D4B1B68002B03D00B4B1B680020984729
:105ACC000A4B00221A700BE0084B01221A70064B8D
